{
  "_format": "hh-sol-artifact-1",
  "contractName": "Bank",
  "sourceName": "contracts/BankContract.sol",
  "abi": [
    {
      "inputs": [],
      "stateMutability": "nonpayable",
      "type": "constructor"
    },
    {
      "inputs": [],
      "name": "bankName",
      "outputs": [
        {
          "internalType": "string",
          "name": "",
          "type": "string"
        }
      ],
      "stateMutability": "view",
      "type": "function"
    },
    {
      "inputs": [],
      "name": "bankOwner",
      "outputs": [
        {
          "internalType": "address",
          "name": "",
          "type": "address"
        }
      ],
      "stateMutability": "view",
      "type": "function"
    },
    {
      "inputs": [
        {
          "internalType": "address",
          "name": "",
          "type": "address"
        }
      ],
      "name": "customerBalance",
      "outputs": [
        {
          "internalType": "uint256",
          "name": "",
          "type": "uint256"
        }
      ],
      "stateMutability": "view",
      "type": "function"
    },
    {
      "inputs": [],
      "name": "depositMoney",
      "outputs": [],
      "stateMutability": "payable",
      "type": "function"
    },
    {
      "inputs": [],
      "name": "getBankBalance",
      "outputs": [
        {
          "internalType": "uint256",
          "name": "",
          "type": "uint256"
        }
      ],
      "stateMutability": "view",
      "type": "function"
    },
    {
      "inputs": [],
      "name": "getCustomerBalance",
      "outputs": [
        {
          "internalType": "uint256",
          "name": "",
          "type": "uint256"
        }
      ],
      "stateMutability": "view",
      "type": "function"
    },
    {
      "inputs": [
        {
          "internalType": "string",
          "name": "_newBankName",
          "type": "string"
        }
      ],
      "name": "setBankName",
      "outputs": [],
      "stateMutability": "nonpayable",
      "type": "function"
    },
    {
      "inputs": [
        {
          "internalType": "address payable",
          "name": "_to",
          "type": "address"
        },
        {
          "internalType": "uint256",
          "name": "_amount",
          "type": "uint256"
        }
      ],
      "name": "witdrawMoney",
      "outputs": [],
      "stateMutability": "nonpayable",
      "type": "function"
    }
  ],
  "bytecode": "0x608060405234801561001057600080fd5b50336000806101000a81548173ffffffffffffffffffffffffffffffffffffffff021916908373ffffffffffffffffffffffffffffffffffffffff160217905550610d6d806100606000396000f3fe60806040526004361061007b5760003560e01c80637b83b50b1161004e5780637b83b50b1461011b578063a853409a14610146578063b1a8549c14610171578063e147aaa71461019a5761007b565b806316c05aa21461008057806327d358011461008a57806337ebe47b146100b557806370142690146100f2575b600080fd5b6100886101c5565b005b34801561009657600080fd5b5061009f610261565b6040516100ac91906109ce565b60405180910390f35b3480156100c157600080fd5b506100dc60048036038101906100d7919061071e565b6102ef565b6040516100e99190610a70565b60405180910390f35b3480156100fe57600080fd5b5061011960048036038101906101149190610783565b610307565b005b34801561012757600080fd5b506101306103af565b60405161013d9190610a70565b60405180910390f35b34801561015257600080fd5b5061015b610446565b6040516101689190610a70565b60405180910390f35b34801561017d57600080fd5b5061019860048036038101906101939190610747565b61048d565b005b3480156101a657600080fd5b506101af6105b0565b6040516101bc91906109b3565b60405180910390f35b6000341415610209576040517f08c379a000000000000000000000000000000000000000000000000000000000815260040161020090610a30565b60405180910390fd5b34600260003373ffffffffffffffffffffffffffffffffffffffff1673ffffffffffffffffffffffffffffffffffffffff16815260200190815260200160002060008282546102589190610b08565b92505081905550565b6001805461026e90610c22565b80601f016020809104026020016040519081016040528092919081815260200182805461029a90610c22565b80156102e75780601f106102bc576101008083540402835291602001916102e7565b820191906000526020600020905b8154815290600101906020018083116102ca57829003601f168201915b505050505081565b60026020528060005260406000206000915090505481565b60008054906101000a900473ffffffffffffffffffffffffffffffffffffffff1673ffffffffffffffffffffffffffffffffffffffff163373ffffffffffffffffffffffffffffffffffffffff1614610395576040517f08c379a000000000000000000000000000000000000000000000000000000000815260040161038c90610a10565b60405180910390fd5b80600190805190602001906103ab9291906105d4565b5050565b60008060009054906101000a900473ffffffffffffffffffffffffffffffffffffffff1673ffffffffffffffffffffffffffffffffffffffff163373ffffffffffffffffffffffffffffffffffffffff1614610440576040517f08c379a0000000000000000000000000000000000000000000000000000000008152600401610437906109f0565b60405180910390fd5b47905090565b6000600260003373ffffffffffffffffffffffffffffffffffffffff1673ffffffffffffffffffffffffffffffffffffffff16815260200190815260200160002054905090565b600260003373ffffffffffffffffffffffffffffffffffffffff1673ffffffffffffffffffffffffffffffffffffffff1681526020019081526020016000205481111561050f576040517f08c379a000000000000000000000000000000000000000000000000000000000815260040161050690610a50565b60405180910390fd5b80600260003373ffffffffffffffffffffffffffffffffffffffff1673ffffffffffffffffffffffffffffffffffffffff168152602001908152602001600020600082825461055e9190610b5e565b925050819055508173ffffffffffffffffffffffffffffffffffffffff166108fc829081150290604051600060405180830381858888f193505050501580156105ab573d6000803e3d6000fd5b505050565b60008054906101000a900473ffffffffffffffffffffffffffffffffffffffff1681565b8280546105e090610c22565b90600052602060002090601f0160209004810192826106025760008555610649565b82601f1061061b57805160ff1916838001178555610649565b82800160010185558215610649579182015b8281111561064857825182559160200191906001019061062d565b5b509050610656919061065a565b5090565b5b8082111561067357600081600090555060010161065b565b5090565b600061068a61068584610abc565b610a8b565b9050828152602081018484840111156106a257600080fd5b6106ad848285610be0565b509392505050565b6000813590506106c481610cf2565b92915050565b6000813590506106d981610d09565b92915050565b600082601f8301126106f057600080fd5b8135610700848260208601610677565b91505092915050565b60008135905061071881610d20565b92915050565b60006020828403121561073057600080fd5b600061073e848285016106b5565b91505092915050565b6000806040838503121561075a57600080fd5b6000610768858286016106ca565b925050602061077985828601610709565b9150509250929050565b60006020828403121561079557600080fd5b600082013567ffffffffffffffff8111156107af57600080fd5b6107bb848285016106df565b91505092915050565b6107cd81610b92565b82525050565b60006107de82610aec565b6107e88185610af7565b93506107f8818560208601610bef565b61080181610ce1565b840191505092915050565b6000610819603583610af7565b91507f596f75206e65656420746f206265205468652042616e6b2773204f776e65722060008301527f746f20636865636b20697427732042616c616e636500000000000000000000006020830152604082019050919050565b600061087f603e83610af7565b91507f596f75206e65656420746f206265207468652042616e6b2773204f776e65722060008301527f746f2062652041626c6520746f206368616e67652069742773204e616d6500006020830152604082019050919050565b60006108e5602983610af7565b91507f596f752043616e2774204465706f73697420302056616c756520696e20596f7560008301527f72204163636f756e7400000000000000000000000000000000000000000000006020830152604082019050919050565b600061094b603783610af7565b91507f596f7572204163636f756e74204d75737420436f7665722074686520416d6f7560008301527f6e7420596f75206e65656420746f2057697468647261770000000000000000006020830152604082019050919050565b6109ad81610bd6565b82525050565b60006020820190506109c860008301846107c4565b92915050565b600060208201905081810360008301526109e881846107d3565b905092915050565b60006020820190508181036000830152610a098161080c565b9050919050565b60006020820190508181036000830152610a2981610872565b9050919050565b60006020820190508181036000830152610a49816108d8565b9050919050565b60006020820190508181036000830152610a698161093e565b9050919050565b6000602082019050610a8560008301846109a4565b92915050565b6000604051905081810181811067ffffffffffffffff82111715610ab257610ab1610cb2565b5b8060405250919050565b600067ffffffffffffffff821115610ad757610ad6610cb2565b5b601f19601f8301169050602081019050919050565b600081519050919050565b600082825260208201905092915050565b6000610b1382610bd6565b9150610b1e83610bd6565b9250827fffffffffffffffffffffffffffffffffffffffffffffffffffffffffffffffff03821115610b5357610b52610c54565b5b828201905092915050565b6000610b6982610bd6565b9150610b7483610bd6565b925082821015610b8757610b86610c54565b5b828203905092915050565b6000610b9d82610bb6565b9050919050565b6000610baf82610bb6565b9050919050565b600073ffffffffffffffffffffffffffffffffffffffff82169050919050565b6000819050919050565b82818337600083830152505050565b60005b83811015610c0d578082015181840152602081019050610bf2565b83811115610c1c576000848401525b50505050565b60006002820490506001821680610c3a57607f821691505b60208210811415610c4e57610c4d610c83565b5b50919050565b7f4e487b7100000000000000000000000000000000000000000000000000000000600052601160045260246000fd5b7f4e487b7100000000000000000000000000000000000000000000000000000000600052602260045260246000fd5b7f4e487b7100000000000000000000000000000000000000000000000000000000600052604160045260246000fd5b6000601f19601f8301169050919050565b610cfb81610b92565b8114610d0657600080fd5b50565b610d1281610ba4565b8114610d1d57600080fd5b50565b610d2981610bd6565b8114610d3457600080fd5b5056fea264697066735822122076d792406a3b479f358a6742c98c2ec927e9599a7f0dc3282855b1a7cf87c02d64736f6c63430008000033",
  "linkReferences": {},
  "deployedLinkReferences": {}
}